{
  "contractName": "MyCalculator",
  "abi": [
    {
      "inputs": [
        {
          "internalType": "uint256",
          "name": "_a",
          "type": "uint256"
        }
      ],
      "name": "setValueOfA",
      "outputs": [],
      "stateMutability": "nonpayable",
      "type": "function"
    },
    {
      "inputs": [
        {
          "internalType": "uint256",
          "name": "_b",
          "type": "uint256"
        }
      ],
      "name": "setValueOfB",
      "outputs": [],
      "stateMutability": "nonpayable",
      "type": "function"
    },
    {
      "inputs": [],
      "name": "getValueOfA",
      "outputs": [
        {
          "internalType": "uint256",
          "name": "",
          "type": "uint256"
        }
      ],
      "stateMutability": "view",
      "type": "function",
      "constant": true
    },
    {
      "inputs": [],
      "name": "getValueOfB",
      "outputs": [
        {
          "internalType": "uint256",
          "name": "",
          "type": "uint256"
        }
      ],
      "stateMutability": "view",
      "type": "function",
      "constant": true
    },
    {
      "inputs": [],
      "name": "getValueOfC",
      "outputs": [
        {
          "internalType": "uint256",
          "name": "",
          "type": "uint256"
        }
      ],
      "stateMutability": "view",
      "type": "function",
      "constant": true
    },
    {
      "inputs": [],
      "name": "add",
      "outputs": [],
      "stateMutability": "nonpayable",
      "type": "function"
    },
    {
      "inputs": [],
      "name": "sub",
      "outputs": [],
      "stateMutability": "nonpayable",
      "type": "function"
    },
    {
      "inputs": [],
      "name": "mult",
      "outputs": [],
      "stateMutability": "nonpayable",
      "type": "function"
    },
    {
      "inputs": [],
      "name": "mod",
      "outputs": [],
      "stateMutability": "nonpayable",
      "type": "function"
    },
    {
      "inputs": [],
      "name": "pow",
      "outputs": [],
      "stateMutability": "nonpayable",
      "type": "function"
    }
  ],
  "bytecode": "0x608060405234801561001057600080fd5b506105c0806100206000396000f3fe608060405234801561001057600080fd5b506004361061009e5760003560e01c8063a7b60e7711610066578063a7b60e771461010d578063b07ca2e41461012b578063c54124be14610149578063e879a13e14610153578063ef7e1e891461015d5761009e565b80632986e054146100a35780634f2be91f146100ad57806350fdf090146100b75780635c68150e146100d5578063961d37ae146100f1575b600080fd5b6100ab610167565b005b6100b561017f565b005b6100bf610197565b6040516100cc919061025d565b60405180910390f35b6100ef60048036038101906100ea9190610225565b6101a1565b005b61010b60048036038101906101069190610225565b6101ab565b005b6101156101b5565b604051610122919061025d565b60405180910390f35b6101336101be565b604051610140919061025d565b60405180910390f35b6101516101c8565b005b61015b6101e0565b005b6101656101f8565b005b60015460005461017791906104d7565b600281905550565b60015460005461018f9190610278565b600281905550565b6000600154905090565b8060008190555050565b8060018190555050565b60008054905090565b6000600254905090565b6001546000546101d89190610499565b600281905550565b6001546000546101f0919061043f565b600281905550565b6001546000546102089190610321565b600281905550565b60008135905061021f81610573565b92915050565b60006020828403121561023757600080fd5b600061024584828501610210565b91505092915050565b610257816104cd565b82525050565b6000602082019050610272600083018461024e565b92915050565b6000610283826104cd565b915061028e836104cd565b9250827fffffffffffffffffffffffffffffffffffffffffffffffffffffffffffffffff038211156102c3576102c2610508565b5b828201905092915050565b6000808291508390505b6001851115610318578086048111156102f4576102f3610508565b5b60018516156103035780820291505b808102905061031185610566565b94506102d8565b94509492505050565b600061032c826104cd565b9150610337836104cd565b92506103647fffffffffffffffffffffffffffffffffffffffffffffffffffffffffffffffff848461036c565b905092915050565b60008261037c5760019050610438565b8161038a5760009050610438565b81600181146103a057600281146103aa576103d9565b6001915050610438565b60ff8411156103bc576103bb610508565b5b8360020a9150848211156103d3576103d2610508565b5b50610438565b5060208310610133831016604e8410600b841016171561040e5782820a90508381111561040957610408610508565b5b610438565b61041b84848460016102ce565b9250905081840481111561043257610431610508565b5b81810290505b9392505050565b600061044a826104cd565b9150610455836104cd565b9250817fffffffffffffffffffffffffffffffffffffffffffffffffffffffffffffffff048311821515161561048e5761048d610508565b5b828202905092915050565b60006104a4826104cd565b91506104af836104cd565b9250828210156104c2576104c1610508565b5b828203905092915050565b6000819050919050565b60006104e2826104cd565b91506104ed836104cd565b9250826104fd576104fc610537565b5b828206905092915050565b7f4e487b7100000000000000000000000000000000000000000000000000000000600052601160045260246000fd5b7f4e487b7100000000000000000000000000000000000000000000000000000000600052601260045260246000fd5b60008160011c9050919050565b61057c816104cd565b811461058757600080fd5b5056fea26469706673582212202a6de3ea6b16e2ec2c15b3289a275bedcf7f1d39b85fc72e05893efe29f2c64564736f6c63430008010033",
  "immutableReferences": {},
  "source": "// SPDX-License-Identifier: GPL-3.0\r\n\r\npragma solidity >=0.7.0 <0.9.0;\r\n\r\ncontract MyCalculator {\r\n    uint256 a;\r\n    uint256 b;\r\n    uint256 c;\r\n\r\n    function setValueOfA(uint256 _a) public {\r\n        a = _a;\r\n    }\r\n\r\n    function setValueOfB(uint256 _b) public {\r\n        b = _b;\r\n    }\r\n\r\n    function getValueOfA() public view returns (uint256) {\r\n        return a;\r\n    }\r\n\r\n    function getValueOfB() public view returns (uint256) {\r\n        return b;\r\n    }\r\n\r\n    function getValueOfC() public view returns (uint256) {\r\n        return c;\r\n    }\r\n\r\n    function add() public {\r\n        c = a + b;\r\n    }\r\n\r\n    function sub() public {\r\n        c = a - b;\r\n    }\r\n\r\n    function mult() public {\r\n        c = a * b;\r\n    }\r\n\r\n    function mod() public {\r\n        c = a % b;\r\n    }\r\n\r\n    function pow() public {\r\n        c = a**b;\r\n    }\r\n}\r\n",
  "sourcePath": "/mnt/g/javascript/Projects/BlockChain/Truffle/PracticePractice/contracts/calculate.sol",
  "compiler": {
    "name": "solc",
    "version": "0.8.1+commit.df193b15.Emscripten.clang"
  },
  "schemaVersion": "3.4.2",
  "updatedAt": "2021-08-04T14:15:41.235Z",
  "networkType": "ethereum",
  "devdoc": {
    "kind": "dev",
    "methods": {},
    "version": 1
  },
  "userdoc": {
    "kind": "user",
    "methods": {},
    "version": 1
  }
}